{
  "contractName": "ERC721Connector",
  "abi": [
    {
      "inputs": [
        {
          "internalType": "string",
          "name": "name",
          "type": "string"
        },
        {
          "internalType": "string",
          "name": "symobl",
          "type": "string"
        }
      ],
      "stateMutability": "nonpayable",
      "type": "constructor"
    },
    {
      "anonymous": false,
      "inputs": [
        {
          "indexed": true,
          "internalType": "address",
          "name": "_owner",
          "type": "address"
        },
        {
          "indexed": true,
          "internalType": "address",
          "name": "_approved",
          "type": "address"
        },
        {
          "indexed": true,
          "internalType": "uint256",
          "name": "_tokenId",
          "type": "uint256"
        }
      ],
      "name": "Approval",
      "type": "event"
    },
    {
      "anonymous": false,
      "inputs": [
        {
          "indexed": true,
          "internalType": "address",
          "name": "_from",
          "type": "address"
        },
        {
          "indexed": true,
          "internalType": "address",
          "name": "_to",
          "type": "address"
        },
        {
          "indexed": true,
          "internalType": "uint256",
          "name": "_tokenId",
          "type": "uint256"
        }
      ],
      "name": "Transfer",
      "type": "event"
    },
    {
      "inputs": [
        {
          "internalType": "address",
          "name": "_to",
          "type": "address"
        },
        {
          "internalType": "uint256",
          "name": "_tokenId",
          "type": "uint256"
        }
      ],
      "name": "approve",
      "outputs": [],
      "stateMutability": "nonpayable",
      "type": "function"
    },
    {
      "inputs": [
        {
          "internalType": "address",
          "name": "_owner",
          "type": "address"
        }
      ],
      "name": "balanceOf",
      "outputs": [
        {
          "internalType": "uint256",
          "name": "",
          "type": "uint256"
        }
      ],
      "stateMutability": "view",
      "type": "function"
    },
    {
      "inputs": [],
      "name": "name",
      "outputs": [
        {
          "internalType": "string",
          "name": "",
          "type": "string"
        }
      ],
      "stateMutability": "view",
      "type": "function"
    },
    {
      "inputs": [
        {
          "internalType": "uint256",
          "name": "_tokenId",
          "type": "uint256"
        }
      ],
      "name": "ownerOf",
      "outputs": [
        {
          "internalType": "address",
          "name": "",
          "type": "address"
        }
      ],
      "stateMutability": "view",
      "type": "function"
    },
    {
      "inputs": [
        {
          "internalType": "bytes4",
          "name": "interfaceId",
          "type": "bytes4"
        }
      ],
      "name": "supportsInterface",
      "outputs": [
        {
          "internalType": "bool",
          "name": "",
          "type": "bool"
        }
      ],
      "stateMutability": "view",
      "type": "function"
    },
    {
      "inputs": [],
      "name": "symobl",
      "outputs": [
        {
          "internalType": "string",
          "name": "",
          "type": "string"
        }
      ],
      "stateMutability": "view",
      "type": "function"
    },
    {
      "inputs": [
        {
          "internalType": "uint256",
          "name": "index",
          "type": "uint256"
        }
      ],
      "name": "tokenByIndex",
      "outputs": [
        {
          "internalType": "uint256",
          "name": "",
          "type": "uint256"
        }
      ],
      "stateMutability": "view",
      "type": "function"
    },
    {
      "inputs": [
        {
          "internalType": "address",
          "name": "owner",
          "type": "address"
        },
        {
          "internalType": "uint256",
          "name": "index",
          "type": "uint256"
        }
      ],
      "name": "tokenOfOwnerByIndex",
      "outputs": [
        {
          "internalType": "uint256",
          "name": "",
          "type": "uint256"
        }
      ],
      "stateMutability": "view",
      "type": "function"
    },
    {
      "inputs": [],
      "name": "totalSupply",
      "outputs": [
        {
          "internalType": "uint256",
          "name": "",
          "type": "uint256"
        }
      ],
      "stateMutability": "view",
      "type": "function"
    },
    {
      "inputs": [
        {
          "internalType": "address",
          "name": "_from",
          "type": "address"
        },
        {
          "internalType": "address",
          "name": "_to",
          "type": "address"
        },
        {
          "internalType": "uint256",
          "name": "_tokenId",
          "type": "uint256"
        }
      ],
      "name": "transferFrom",
      "outputs": [],
      "stateMutability": "nonpayable",
      "type": "function"
    }
  ],
  "bytecode": "0x60806040523480156200001157600080fd5b5060405162001911380380620019118339818101604052810190620000379190620003c9565b81818160009080519060200190620000519291906200017c565b5080600190805190602001906200006a9291906200017c565b5050506200009e7f01ffc9a7a5cef8baa21ed3c5c0d7e23accb804b619e9333b597f47a0d84076e2620000a660201b60201c565b505062000536565b600060e01b817bffffffffffffffffffffffffffffffffffffffffffffffffffffffff191614156200010f576040517f08c379a00000000000000000000000000000000000000000000000000000000081526004016200010690620004af565b60405180910390fd5b600160026000837bffffffffffffffffffffffffffffffffffffffffffffffffffffffff19167bffffffffffffffffffffffffffffffffffffffffffffffffffffffff1916815260200190815260200160002060006101000a81548160ff02191690831515021790555050565b8280546200018a9062000500565b90600052602060002090601f016020900481019282620001ae5760008555620001fa565b82601f10620001c957805160ff1916838001178555620001fa565b82800160010185558215620001fa579182015b82811115620001f9578251825591602001919060010190620001dc565b5b5090506200020991906200020d565b5090565b5b80821115620002285760008160009055506001016200020e565b5090565b6000604051905090565b600080fd5b600080fd5b600080fd5b600080fd5b6000601f19601f8301169050919050565b7f4e487b7100000000000000000000000000000000000000000000000000000000600052604160045260246000fd5b62000295826200024a565b810181811067ffffffffffffffff82111715620002b757620002b66200025b565b5b80604052505050565b6000620002cc6200022c565b9050620002da82826200028a565b919050565b600067ffffffffffffffff821115620002fd57620002fc6200025b565b5b62000308826200024a565b9050602081019050919050565b60005b838110156200033557808201518184015260208101905062000318565b8381111562000345576000848401525b50505050565b6000620003626200035c84620002df565b620002c0565b90508281526020810184848401111562000381576200038062000245565b5b6200038e84828562000315565b509392505050565b600082601f830112620003ae57620003ad62000240565b5b8151620003c08482602086016200034b565b91505092915050565b60008060408385031215620003e357620003e262000236565b5b600083015167ffffffffffffffff8111156200040457620004036200023b565b5b620004128582860162000396565b925050602083015167ffffffffffffffff8111156200043657620004356200023b565b5b620004448582860162000396565b9150509250929050565b600082825260208201905092915050565b7f496e76616c696420696e74657266616365207265717565737421000000000000600082015250565b600062000497601a836200044e565b9150620004a4826200045f565b602082019050919050565b60006020820190508181036000830152620004ca8162000488565b9050919050565b7f4e487b7100000000000000000000000000000000000000000000000000000000600052602260045260246000fd5b600060028204905060018216806200051957607f821691505b6020821081141562000530576200052f620004d1565b5b50919050565b6113cb80620005466000396000f3fe608060405234801561001057600080fd5b506004361061009e5760003560e01c80632f745c59116100665780632f745c591461014757806334a1787b146101775780634f6ccce7146101955780636352211e146101c557806370a08231146101f55761009e565b806301ffc9a7146100a357806306fdde03146100d3578063095ea7b3146100f157806318160ddd1461010d57806323b872dd1461012b575b600080fd5b6100bd60048036038101906100b89190610bad565b610225565b6040516100ca9190610bf5565b60405180910390f35b6100db61028d565b6040516100e89190610ca9565b60405180910390f35b61010b60048036038101906101069190610d5f565b61031f565b005b6101156104bb565b6040516101229190610dae565b60405180910390f35b61014560048036038101906101409190610dc9565b6104c8565b005b610161600480360381019061015c9190610d5f565b6104eb565b60405161016e9190610dae565b60405180910390f35b61017f61059b565b60405161018c9190610ca9565b60405180910390f35b6101af60048036038101906101aa9190610e1c565b61062d565b6040516101bc9190610dae565b60405180910390f35b6101df60048036038101906101da9190610e1c565b61069e565b6040516101ec9190610e58565b60405180910390f35b61020f600480360381019061020a9190610e73565b610750565b60405161021c9190610dae565b60405180910390f35b600060026000837bffffffffffffffffffffffffffffffffffffffffffffffffffffffff19167bffffffffffffffffffffffffffffffffffffffffffffffffffffffff1916815260200190815260200160002060009054906101000a900460ff169050919050565b60606000805461029c90610ecf565b80601f01602080910402602001604051908101604052809291908181526020018280546102c890610ecf565b80156103155780601f106102ea57610100808354040283529160200191610315565b820191906000526020600020905b8154815290600101906020018083116102f857829003601f168201915b5050505050905090565b600061032a8261069e565b90508073ffffffffffffffffffffffffffffffffffffffff168373ffffffffffffffffffffffffffffffffffffffff16141561039b576040517f08c379a000000000000000000000000000000000000000000000000000000000815260040161039290610f4d565b60405180910390fd5b8073ffffffffffffffffffffffffffffffffffffffff163373ffffffffffffffffffffffffffffffffffffffff1614610409576040517f08c379a000000000000000000000000000000000000000000000000000000000815260040161040090610fb9565b60405180910390fd5b826005600084815260200190815260200160002060006101000a81548173ffffffffffffffffffffffffffffffffffffffff021916908373ffffffffffffffffffffffffffffffffffffffff160217905550818373ffffffffffffffffffffffffffffffffffffffff168273ffffffffffffffffffffffffffffffffffffffff167f8c5be1e5ebec7d5bd14f71427d1e84f3dd0314c0f7b2291e5b200ac8c7c3b92560405160405180910390a4505050565b6000600680549050905090565b6104d23382610808565b6104db57600080fd5b6104e6838383610898565b505050565b60006104f683610750565b8210610537576040517f08c379a000000000000000000000000000000000000000000000000000000000815260040161052e90611025565b60405180910390fd5b600860008473ffffffffffffffffffffffffffffffffffffffff1673ffffffffffffffffffffffffffffffffffffffff168152602001908152602001600020828154811061058857610587611045565b5b9060005260206000200154905092915050565b6060600180546105aa90610ecf565b80601f01602080910402602001604051908101604052809291908181526020018280546105d690610ecf565b80156106235780601f106105f857610100808354040283529160200191610623565b820191906000526020600020905b81548152906001019060200180831161060657829003601f168201915b5050505050905090565b60006106376104bb565b8210610678576040517f08c379a000000000000000000000000000000000000000000000000000000000815260040161066f906110c0565b60405180910390fd5b6006828154811061068c5761068b611045565b5b90600052602060002001549050919050565b6000806003600084815260200190815260200160002060009054906101000a900473ffffffffffffffffffffffffffffffffffffffff169050600073ffffffffffffffffffffffffffffffffffffffff168173ffffffffffffffffffffffffffffffffffffffff161415610747576040517f08c379a000000000000000000000000000000000000000000000000000000000815260040161073e9061112c565b60405180910390fd5b80915050919050565b60008073ffffffffffffffffffffffffffffffffffffffff168273ffffffffffffffffffffffffffffffffffffffff1614156107c1576040517f08c379a00000000000000000000000000000000000000000000000000000000081526004016107b89061112c565b60405180910390fd5b600460008373ffffffffffffffffffffffffffffffffffffffff1673ffffffffffffffffffffffffffffffffffffffff168152602001908152602001600020549050919050565b600061081382610ade565b15610853576040517f08c379a000000000000000000000000000000000000000000000000000000000815260040161084a90611198565b60405180910390fd5b600061085e8361069e565b90508373ffffffffffffffffffffffffffffffffffffffff168173ffffffffffffffffffffffffffffffffffffffff161491505092915050565b600073ffffffffffffffffffffffffffffffffffffffff168273ffffffffffffffffffffffffffffffffffffffff161415610908576040517f08c379a00000000000000000000000000000000000000000000000000000000081526004016108ff9061122a565b60405180910390fd5b6109118161069e565b73ffffffffffffffffffffffffffffffffffffffff168373ffffffffffffffffffffffffffffffffffffffff161461097e576040517f08c379a0000000000000000000000000000000000000000000000000000000008152600401610975906112bc565b60405180910390fd5b6001600460008573ffffffffffffffffffffffffffffffffffffffff1673ffffffffffffffffffffffffffffffffffffffff16815260200190815260200160002060008282546109ce919061130b565b925050819055506001600460008473ffffffffffffffffffffffffffffffffffffffff1673ffffffffffffffffffffffffffffffffffffffff1681526020019081526020016000206000828254610a25919061133f565b92505081905550816003600083815260200190815260200160002060006101000a81548173ffffffffffffffffffffffffffffffffffffffff021916908373ffffffffffffffffffffffffffffffffffffffff160217905550808273ffffffffffffffffffffffffffffffffffffffff168473ffffffffffffffffffffffffffffffffffffffff167fddf252ad1be2c89b69c2b068fc378daa952ba7f163c4a11628f55a4df523b3ef60405160405180910390a4505050565b6000806003600084815260200190815260200160002060009054906101000a900473ffffffffffffffffffffffffffffffffffffffff169050600073ffffffffffffffffffffffffffffffffffffffff168173ffffffffffffffffffffffffffffffffffffffff161415915050919050565b600080fd5b60007fffffffff0000000000000000000000000000000000000000000000000000000082169050919050565b610b8a81610b55565b8114610b9557600080fd5b50565b600081359050610ba781610b81565b92915050565b600060208284031215610bc357610bc2610b50565b5b6000610bd184828501610b98565b91505092915050565b60008115159050919050565b610bef81610bda565b82525050565b6000602082019050610c0a6000830184610be6565b92915050565b600081519050919050565b600082825260208201905092915050565b60005b83811015610c4a578082015181840152602081019050610c2f565b83811115610c59576000848401525b50505050565b6000601f19601f8301169050919050565b6000610c7b82610c10565b610c858185610c1b565b9350610c95818560208601610c2c565b610c9e81610c5f565b840191505092915050565b60006020820190508181036000830152610cc38184610c70565b905092915050565b600073ffffffffffffffffffffffffffffffffffffffff82169050919050565b6000610cf682610ccb565b9050919050565b610d0681610ceb565b8114610d1157600080fd5b50565b600081359050610d2381610cfd565b92915050565b6000819050919050565b610d3c81610d29565b8114610d4757600080fd5b50565b600081359050610d5981610d33565b92915050565b60008060408385031215610d7657610d75610b50565b5b6000610d8485828601610d14565b9250506020610d9585828601610d4a565b9150509250929050565b610da881610d29565b82525050565b6000602082019050610dc36000830184610d9f565b92915050565b600080600060608486031215610de257610de1610b50565b5b6000610df086828701610d14565b9350506020610e0186828701610d14565b9250506040610e1286828701610d4a565b9150509250925092565b600060208284031215610e3257610e31610b50565b5b6000610e4084828501610d4a565b91505092915050565b610e5281610ceb565b82525050565b6000602082019050610e6d6000830184610e49565b92915050565b600060208284031215610e8957610e88610b50565b5b6000610e9784828501610d14565b91505092915050565b7f4e487b7100000000000000000000000000000000000000000000000000000000600052602260045260246000fd5b60006002820490506001821680610ee757607f821691505b60208210811415610efb57610efa610ea0565b5b50919050565b7f417070726f76616c20746f2063757272656e74206f776e657200000000000000600082015250565b6000610f37601983610c1b565b9150610f4282610f01565b602082019050919050565b60006020820190508181036000830152610f6681610f2a565b9050919050565b7f43757272656e742063616c6c6572206973206e6f7420746865206f776e657200600082015250565b6000610fa3601f83610c1b565b9150610fae82610f6d565b602082019050919050565b60006020820190508181036000830152610fd281610f96565b9050919050565b7f6f776e657220696e646578206973206f7574206f6620626f756e642100000000600082015250565b600061100f601c83610c1b565b915061101a82610fd9565b602082019050919050565b6000602082019050818103600083015261103e81611002565b9050919050565b7f4e487b7100000000000000000000000000000000000000000000000000000000600052603260045260246000fd5b7f676c6f62616c20696e646578206973206f7574206f6620626f756e6421000000600082015250565b60006110aa601d83610c1b565b91506110b582611074565b602082019050919050565b600060208201905081810360008301526110d98161109d565b9050919050565b7f496e76616c6964206f776e657220616464726573730000000000000000000000600082015250565b6000611116601583610c1b565b9150611121826110e0565b602082019050919050565b6000602082019050818103600083015261114581611109565b9050919050565b7f546f6b656e206e6f7420666f756e642100000000000000000000000000000000600082015250565b6000611182601083610c1b565b915061118d8261114c565b602082019050919050565b600060208201905081810360008301526111b181611175565b9050919050565b7f455243373231205472616e7366657220746f20746865207a65726f206164647260008201527f6573730000000000000000000000000000000000000000000000000000000000602082015250565b6000611214602383610c1b565b915061121f826111b8565b604082019050919050565b6000602082019050818103600083015261124381611207565b9050919050565b7f547279696e6720746f207472616e73666572206120746f6b656e20746865206160008201527f64647265737320646f6573206e6f74206f776e21000000000000000000000000602082015250565b60006112a6603483610c1b565b91506112b18261124a565b604082019050919050565b600060208201905081810360008301526112d581611299565b9050919050565b7f4e487b7100000000000000000000000000000000000000000000000000000000600052601160045260246000fd5b600061131682610d29565b915061132183610d29565b925082821015611334576113336112dc565b5b828203905092915050565b600061134a82610d29565b915061135583610d29565b9250827fffffffffffffffffffffffffffffffffffffffffffffffffffffffffffffffff0382111561138a576113896112dc565b5b82820190509291505056fea26469706673582212202ad159810e0993da54e7e0439d43233fb6c5a2ce4fe347f671041f379e1ac4bc64736f6c634300080b0033",
  "immutableReferences": {},
  "source": "// SPDX-License-Identifier: MIT\npragma solidity ^0.8.0;\n\nimport \"./ERC721Metadata.sol\";\nimport \"./ERC721.sol\";\nimport \"./ERC721Enumerable.sol\";\n\ncontract ERC721Connector is ERC721Metadata, ERC721Enumerable {\n    constructor(string memory name, string memory symobl)\n        ERC721Metadata(name, symobl)\n    {}\n}\n",
  "sourcePath": "/home/dashzou/Desktop/NFTS/frist_project/src/contracts/ERC721Connector.sol",
  "compiler": {
    "name": "solc",
    "version": "0.8.11+commit.d7f03943.Emscripten.clang"
  },
  "schemaVersion": "3.4.4",
  "updatedAt": "2022-02-11T17:59:43.168Z",
  "devdoc": {
    "kind": "dev",
    "methods": {},
    "version": 1
  },
  "userdoc": {
    "kind": "user",
    "methods": {},
    "version": 1
  }
}