{
  "contractName": "ERC721Connector",
  "abi": [
    {
      "inputs": [
        {
          "internalType": "string",
          "name": "name",
          "type": "string"
        },
        {
          "internalType": "string",
          "name": "symobl",
          "type": "string"
        }
      ],
      "stateMutability": "nonpayable",
      "type": "constructor"
    },
    {
      "anonymous": false,
      "inputs": [
        {
          "indexed": true,
          "internalType": "address",
          "name": "_owner",
          "type": "address"
        },
        {
          "indexed": true,
          "internalType": "address",
          "name": "_approved",
          "type": "address"
        },
        {
          "indexed": true,
          "internalType": "uint256",
          "name": "_tokenId",
          "type": "uint256"
        }
      ],
      "name": "Approval",
      "type": "event"
    },
    {
      "anonymous": false,
      "inputs": [
        {
          "indexed": true,
          "internalType": "address",
          "name": "_from",
          "type": "address"
        },
        {
          "indexed": true,
          "internalType": "address",
          "name": "_to",
          "type": "address"
        },
        {
          "indexed": true,
          "internalType": "uint256",
          "name": "_tokenId",
          "type": "uint256"
        }
      ],
      "name": "Transfer",
      "type": "event"
    },
    {
      "inputs": [
        {
          "internalType": "address",
          "name": "_to",
          "type": "address"
        },
        {
          "internalType": "uint256",
          "name": "_tokenId",
          "type": "uint256"
        }
      ],
      "name": "approve",
      "outputs": [],
      "stateMutability": "nonpayable",
      "type": "function"
    },
    {
      "inputs": [
        {
          "internalType": "address",
          "name": "_owner",
          "type": "address"
        }
      ],
      "name": "balanceOf",
      "outputs": [
        {
          "internalType": "uint256",
          "name": "",
          "type": "uint256"
        }
      ],
      "stateMutability": "view",
      "type": "function"
    },
    {
      "inputs": [],
      "name": "name",
      "outputs": [
        {
          "internalType": "string",
          "name": "",
          "type": "string"
        }
      ],
      "stateMutability": "view",
      "type": "function"
    },
    {
      "inputs": [
        {
          "internalType": "uint256",
          "name": "_tokenId",
          "type": "uint256"
        }
      ],
      "name": "ownerOf",
      "outputs": [
        {
          "internalType": "address",
          "name": "",
          "type": "address"
        }
      ],
      "stateMutability": "view",
      "type": "function"
    },
    {
      "inputs": [
        {
          "internalType": "bytes4",
          "name": "interfaceId",
          "type": "bytes4"
        }
      ],
      "name": "supportsInterface",
      "outputs": [
        {
          "internalType": "bool",
          "name": "",
          "type": "bool"
        }
      ],
      "stateMutability": "view",
      "type": "function"
    },
    {
      "inputs": [],
      "name": "symbol",
      "outputs": [
        {
          "internalType": "string",
          "name": "",
          "type": "string"
        }
      ],
      "stateMutability": "view",
      "type": "function"
    },
    {
      "inputs": [
        {
          "internalType": "uint256",
          "name": "index",
          "type": "uint256"
        }
      ],
      "name": "tokenByIndex",
      "outputs": [
        {
          "internalType": "uint256",
          "name": "",
          "type": "uint256"
        }
      ],
      "stateMutability": "view",
      "type": "function"
    },
    {
      "inputs": [
        {
          "internalType": "address",
          "name": "owner",
          "type": "address"
        },
        {
          "internalType": "uint256",
          "name": "index",
          "type": "uint256"
        }
      ],
      "name": "tokenOfOwnerByIndex",
      "outputs": [
        {
          "internalType": "uint256",
          "name": "",
          "type": "uint256"
        }
      ],
      "stateMutability": "view",
      "type": "function"
    },
    {
      "inputs": [],
      "name": "totalSupply",
      "outputs": [
        {
          "internalType": "uint256",
          "name": "",
          "type": "uint256"
        }
      ],
      "stateMutability": "view",
      "type": "function"
    },
    {
      "inputs": [
        {
          "internalType": "address",
          "name": "_from",
          "type": "address"
        },
        {
          "internalType": "address",
          "name": "_to",
          "type": "address"
        },
        {
          "internalType": "uint256",
          "name": "_tokenId",
          "type": "uint256"
        }
      ],
      "name": "transferFrom",
      "outputs": [],
      "stateMutability": "nonpayable",
      "type": "function"
    }
  ],
  "bytecode": "0x60806040523480156200001157600080fd5b5060405162001b7038038062001b70833981810160405281019062000037919062000527565b81816200006a7f01ffc9a7a5cef8baa21ed3c5c0d7e23accb804b619e9333b597f47a0d84076e26200020560201b60201c565b816001908051906020019062000082929190620002da565b5080600290805190602001906200009b929190620002da565b50620000ef7f13b182f4c0e5b2efbac0efe6cf6d756c8b89f4b79c5707a043ed9ea740574ee97f7feaf19471f34a12a7eaf32d5f3090aa2260ea8624dc8a138e74e0bf0f623076186200020560201b60201c565b5050620001887f8c51fd5fcf1f456ec4eb0f32f68d83471264fe082fac12bcbfd2fa4be9eed6c77f22c82707ba960a14c7592ffb6b8cfaa073fed0048a84cc7fa41f6b5bd8e7f2e47f3a6eb71757dfc6e784c1459d26270140c2c147d95ca985c80026fc5301c3eca17f8a7e378434598edc36d108689a030cbc9d7d465de4f74c71bae1028eed6a881b1818186200020560201b60201c565b620001fd7fc53637662700e6c65104059db8bba34439e0c32483ab7c34e3ccae52c73954957f8230223f691b981717299fae9549350a0d894555723531f02108b1f522c1a7977f6da5e1284143cdd2d15038a59bde3be031250f00291d64494c12d967b3a4e0c318186200020560201b60201c565b505062000694565b600060e01b817bffffffffffffffffffffffffffffffffffffffffffffffffffffffff191614156200026e576040517f08c379a000000000000000000000000000000000000000000000000000000000815260040162000265906200060d565b60405180910390fd5b6001600080837bffffffffffffffffffffffffffffffffffffffffffffffffffffffff19167bffffffffffffffffffffffffffffffffffffffffffffffffffffffff1916815260200190815260200160002060006101000a81548160ff02191690831515021790555050565b828054620002e8906200065e565b90600052602060002090601f0160209004810192826200030c576000855562000358565b82601f106200032757805160ff191683800117855562000358565b8280016001018555821562000358579182015b82811115620003575782518255916020019190600101906200033a565b5b5090506200036791906200036b565b5090565b5b80821115620003865760008160009055506001016200036c565b5090565b6000604051905090565b600080fd5b600080fd5b600080fd5b600080fd5b6000601f19601f8301169050919050565b7f4e487b7100000000000000000000000000000000000000000000000000000000600052604160045260246000fd5b620003f382620003a8565b810181811067ffffffffffffffff82111715620004155762000414620003b9565b5b80604052505050565b60006200042a6200038a565b9050620004388282620003e8565b919050565b600067ffffffffffffffff8211156200045b576200045a620003b9565b5b6200046682620003a8565b9050602081019050919050565b60005b838110156200049357808201518184015260208101905062000476565b83811115620004a3576000848401525b50505050565b6000620004c0620004ba846200043d565b6200041e565b905082815260208101848484011115620004df57620004de620003a3565b5b620004ec84828562000473565b509392505050565b600082601f8301126200050c576200050b6200039e565b5b81516200051e848260208601620004a9565b91505092915050565b6000806040838503121562000541576200054062000394565b5b600083015167ffffffffffffffff81111562000562576200056162000399565b5b6200057085828601620004f4565b925050602083015167ffffffffffffffff81111562000594576200059362000399565b5b620005a285828601620004f4565b9150509250929050565b600082825260208201905092915050565b7f496e76616c696420696e74657266616365207265717565737421000000000000600082015250565b6000620005f5601a83620005ac565b91506200060282620005bd565b602082019050919050565b600060208201905081810360008301526200062881620005e6565b9050919050565b7f4e487b7100000000000000000000000000000000000000000000000000000000600052602260045260246000fd5b600060028204905060018216806200067757607f821691505b602082108114156200068e576200068d6200062f565b5b50919050565b6114cc80620006a46000396000f3fe608060405234801561001057600080fd5b506004361061009e5760003560e01c80632f745c59116100665780632f745c59146101475780634f6ccce7146101775780636352211e146101a757806370a08231146101d757806395d89b41146102075761009e565b806301ffc9a7146100a357806306fdde03146100d3578063095ea7b3146100f157806318160ddd1461010d57806323b872dd1461012b575b600080fd5b6100bd60048036038101906100b89190610c42565b610225565b6040516100ca9190610c8a565b60405180910390f35b6100db61028c565b6040516100e89190610d3e565b60405180910390f35b61010b60048036038101906101069190610df4565b61031e565b005b6101156104ba565b6040516101229190610e43565b60405180910390f35b61014560048036038101906101409190610e5e565b6104c7565b005b610161600480360381019061015c9190610df4565b6104ea565b60405161016e9190610e43565b60405180910390f35b610191600480360381019061018c9190610eb1565b61059a565b60405161019e9190610e43565b60405180910390f35b6101c160048036038101906101bc9190610eb1565b61060b565b6040516101ce9190610eed565b60405180910390f35b6101f160048036038101906101ec9190610f08565b6106bd565b6040516101fe9190610e43565b60405180910390f35b61020f61077c565b60405161021c9190610d3e565b60405180910390f35b6000806000837bffffffffffffffffffffffffffffffffffffffffffffffffffffffff19167bffffffffffffffffffffffffffffffffffffffffffffffffffffffff1916815260200190815260200160002060009054906101000a900460ff169050919050565b60606001805461029b90610f64565b80601f01602080910402602001604051908101604052809291908181526020018280546102c790610f64565b80156103145780601f106102e957610100808354040283529160200191610314565b820191906000526020600020905b8154815290600101906020018083116102f757829003601f168201915b5050505050905090565b60006103298261060b565b90508073ffffffffffffffffffffffffffffffffffffffff168373ffffffffffffffffffffffffffffffffffffffff16141561039a576040517f08c379a000000000000000000000000000000000000000000000000000000000815260040161039190610fe2565b60405180910390fd5b8073ffffffffffffffffffffffffffffffffffffffff163373ffffffffffffffffffffffffffffffffffffffff1614610408576040517f08c379a00000000000000000000000000000000000000000000000000000000081526004016103ff9061104e565b60405180910390fd5b826005600084815260200190815260200160002060006101000a81548173ffffffffffffffffffffffffffffffffffffffff021916908373ffffffffffffffffffffffffffffffffffffffff160217905550818373ffffffffffffffffffffffffffffffffffffffff168273ffffffffffffffffffffffffffffffffffffffff167f8c5be1e5ebec7d5bd14f71427d1e84f3dd0314c0f7b2291e5b200ac8c7c3b92560405160405180910390a4505050565b6000600680549050905090565b6104d1338261080e565b6104da57600080fd5b6104e583838361089e565b505050565b60006104f5836106bd565b8210610536576040517f08c379a000000000000000000000000000000000000000000000000000000000815260040161052d906110ba565b60405180910390fd5b600860008473ffffffffffffffffffffffffffffffffffffffff1673ffffffffffffffffffffffffffffffffffffffff1681526020019081526020016000208281548110610587576105866110da565b5b9060005260206000200154905092915050565b60006105a46104ba565b82106105e5576040517f08c379a00000000000000000000000000000000000000000000000000000000081526004016105dc90611155565b60405180910390fd5b600682815481106105f9576105f86110da565b5b90600052602060002001549050919050565b6000806003600084815260200190815260200160002060009054906101000a900473ffffffffffffffffffffffffffffffffffffffff169050600073ffffffffffffffffffffffffffffffffffffffff168173ffffffffffffffffffffffffffffffffffffffff1614156106b4576040517f08c379a00000000000000000000000000000000000000000000000000000000081526004016106ab906111c1565b60405180910390fd5b80915050919050565b60008073ffffffffffffffffffffffffffffffffffffffff168273ffffffffffffffffffffffffffffffffffffffff16141561072e576040517f08c379a0000000000000000000000000000000000000000000000000000000008152600401610725906111c1565b60405180910390fd5b610775600460008473ffffffffffffffffffffffffffffffffffffffff1673ffffffffffffffffffffffffffffffffffffffff168152602001908152602001600020610ac4565b9050919050565b60606002805461078b90610f64565b80601f01602080910402602001604051908101604052809291908181526020018280546107b790610f64565b80156108045780601f106107d957610100808354040283529160200191610804565b820191906000526020600020905b8154815290600101906020018083116107e757829003601f168201915b5050505050905090565b600061081982610ad2565b15610859576040517f08c379a00000000000000000000000000000000000000000000000000000000081526004016108509061122d565b60405180910390fd5b60006108648361060b565b90508373ffffffffffffffffffffffffffffffffffffffff168173ffffffffffffffffffffffffffffffffffffffff161491505092915050565b600073ffffffffffffffffffffffffffffffffffffffff168273ffffffffffffffffffffffffffffffffffffffff16141561090e576040517f08c379a0000000000000000000000000000000000000000000000000000000008152600401610905906112bf565b60405180910390fd5b6109178161060b565b73ffffffffffffffffffffffffffffffffffffffff168373ffffffffffffffffffffffffffffffffffffffff1614610984576040517f08c379a000000000000000000000000000000000000000000000000000000000815260040161097b90611351565b60405180910390fd5b6109cb600460008573ffffffffffffffffffffffffffffffffffffffff1673ffffffffffffffffffffffffffffffffffffffff168152602001908152602001600020610b44565b610a12600460008473ffffffffffffffffffffffffffffffffffffffff1673ffffffffffffffffffffffffffffffffffffffff168152602001908152602001600020610b67565b816003600083815260200190815260200160002060006101000a81548173ffffffffffffffffffffffffffffffffffffffff021916908373ffffffffffffffffffffffffffffffffffffffff160217905550808273ffffffffffffffffffffffffffffffffffffffff168473ffffffffffffffffffffffffffffffffffffffff167fddf252ad1be2c89b69c2b068fc378daa952ba7f163c4a11628f55a4df523b3ef60405160405180910390a4505050565b600081600001549050919050565b6000806003600084815260200190815260200160002060009054906101000a900473ffffffffffffffffffffffffffffffffffffffff169050600073ffffffffffffffffffffffffffffffffffffffff168173ffffffffffffffffffffffffffffffffffffffff161415915050919050565b610b5c60018260000154610b8690919063ffffffff16565b816000018190555050565b6001816000016000828254610b7c91906113a0565b9250508190555050565b600082821115610bcb576040517f08c379a0000000000000000000000000000000000000000000000000000000008152600401610bc290611442565b60405180910390fd5b60008284610bd99190611462565b90508091505092915050565b600080fd5b60007fffffffff0000000000000000000000000000000000000000000000000000000082169050919050565b610c1f81610bea565b8114610c2a57600080fd5b50565b600081359050610c3c81610c16565b92915050565b600060208284031215610c5857610c57610be5565b5b6000610c6684828501610c2d565b91505092915050565b60008115159050919050565b610c8481610c6f565b82525050565b6000602082019050610c9f6000830184610c7b565b92915050565b600081519050919050565b600082825260208201905092915050565b60005b83811015610cdf578082015181840152602081019050610cc4565b83811115610cee576000848401525b50505050565b6000601f19601f8301169050919050565b6000610d1082610ca5565b610d1a8185610cb0565b9350610d2a818560208601610cc1565b610d3381610cf4565b840191505092915050565b60006020820190508181036000830152610d588184610d05565b905092915050565b600073ffffffffffffffffffffffffffffffffffffffff82169050919050565b6000610d8b82610d60565b9050919050565b610d9b81610d80565b8114610da657600080fd5b50565b600081359050610db881610d92565b92915050565b6000819050919050565b610dd181610dbe565b8114610ddc57600080fd5b50565b600081359050610dee81610dc8565b92915050565b60008060408385031215610e0b57610e0a610be5565b5b6000610e1985828601610da9565b9250506020610e2a85828601610ddf565b9150509250929050565b610e3d81610dbe565b82525050565b6000602082019050610e586000830184610e34565b92915050565b600080600060608486031215610e7757610e76610be5565b5b6000610e8586828701610da9565b9350506020610e9686828701610da9565b9250506040610ea786828701610ddf565b9150509250925092565b600060208284031215610ec757610ec6610be5565b5b6000610ed584828501610ddf565b91505092915050565b610ee781610d80565b82525050565b6000602082019050610f026000830184610ede565b92915050565b600060208284031215610f1e57610f1d610be5565b5b6000610f2c84828501610da9565b91505092915050565b7f4e487b7100000000000000000000000000000000000000000000000000000000600052602260045260246000fd5b60006002820490506001821680610f7c57607f821691505b60208210811415610f9057610f8f610f35565b5b50919050565b7f417070726f76616c20746f2063757272656e74206f776e657200000000000000600082015250565b6000610fcc601983610cb0565b9150610fd782610f96565b602082019050919050565b60006020820190508181036000830152610ffb81610fbf565b9050919050565b7f43757272656e742063616c6c6572206973206e6f7420746865206f776e657200600082015250565b6000611038601f83610cb0565b915061104382611002565b602082019050919050565b600060208201905081810360008301526110678161102b565b9050919050565b7f6f776e657220696e646578206973206f7574206f6620626f756e642100000000600082015250565b60006110a4601c83610cb0565b91506110af8261106e565b602082019050919050565b600060208201905081810360008301526110d381611097565b9050919050565b7f4e487b7100000000000000000000000000000000000000000000000000000000600052603260045260246000fd5b7f676c6f62616c20696e646578206973206f7574206f6620626f756e6421000000600082015250565b600061113f601d83610cb0565b915061114a82611109565b602082019050919050565b6000602082019050818103600083015261116e81611132565b9050919050565b7f496e76616c6964206f776e657220616464726573730000000000000000000000600082015250565b60006111ab601583610cb0565b91506111b682611175565b602082019050919050565b600060208201905081810360008301526111da8161119e565b9050919050565b7f546f6b656e206e6f7420666f756e642100000000000000000000000000000000600082015250565b6000611217601083610cb0565b9150611222826111e1565b602082019050919050565b600060208201905081810360008301526112468161120a565b9050919050565b7f455243373231205472616e7366657220746f20746865207a65726f206164647260008201527f6573730000000000000000000000000000000000000000000000000000000000602082015250565b60006112a9602383610cb0565b91506112b48261124d565b604082019050919050565b600060208201905081810360008301526112d88161129c565b9050919050565b7f547279696e6720746f207472616e73666572206120746f6b656e20746865206160008201527f64647265737320646f6573206e6f74206f776e21000000000000000000000000602082015250565b600061133b603483610cb0565b9150611346826112df565b604082019050919050565b6000602082019050818103600083015261136a8161132e565b9050919050565b7f4e487b7100000000000000000000000000000000000000000000000000000000600052601160045260246000fd5b60006113ab82610dbe565b91506113b683610dbe565b9250827fffffffffffffffffffffffffffffffffffffffffffffffffffffffffffffffff038211156113eb576113ea611371565b5b828201905092915050565b7f536166654d6174683a205375627472616374696f6e204f766572666c6f770000600082015250565b600061142c601e83610cb0565b9150611437826113f6565b602082019050919050565b6000602082019050818103600083015261145b8161141f565b9050919050565b600061146d82610dbe565b915061147883610dbe565b92508282101561148b5761148a611371565b5b82820390509291505056fea26469706673582212206d1c9c90b9368f3423cd14b268a717769ca04e32202209433fbbb1f18ba34b7564736f6c634300080c0033",
  "immutableReferences": {},
  "source": "// SPDX-License-Identifier: MIT\npragma solidity ^0.8.0;\n\nimport \"./ERC721Metadata.sol\";\nimport \"./ERC721.sol\";\nimport \"./ERC721Enumerable.sol\";\n\ncontract ERC721Connector is ERC721Metadata, ERC721Enumerable {\n    constructor(string memory name, string memory symobl)\n        ERC721Metadata(name, symobl)\n    {}\n}\n",
  "sourcePath": "/home/dashzou/Desktop/NFTS/frist_project/src/contracts/ERC721Connector.sol",
  "compiler": {
    "name": "solc",
    "version": "0.8.12+commit.f00d7308.Emscripten.clang"
  },
  "schemaVersion": "3.4.4",
  "updatedAt": "2022-02-22T19:20:57.438Z",
  "devdoc": {
    "kind": "dev",
    "methods": {},
    "version": 1
  },
  "userdoc": {
    "kind": "user",
    "methods": {},
    "version": 1
  }
}