{
  "contractName": "KryptoBird",
  "abi": [
    {
      "inputs": [],
      "stateMutability": "nonpayable",
      "type": "constructor"
    },
    {
      "anonymous": false,
      "inputs": [
        {
          "indexed": true,
          "internalType": "address",
          "name": "_owner",
          "type": "address"
        },
        {
          "indexed": true,
          "internalType": "address",
          "name": "_approved",
          "type": "address"
        },
        {
          "indexed": true,
          "internalType": "uint256",
          "name": "_tokenId",
          "type": "uint256"
        }
      ],
      "name": "Approval",
      "type": "event"
    },
    {
      "anonymous": false,
      "inputs": [
        {
          "indexed": true,
          "internalType": "address",
          "name": "_from",
          "type": "address"
        },
        {
          "indexed": true,
          "internalType": "address",
          "name": "_to",
          "type": "address"
        },
        {
          "indexed": true,
          "internalType": "uint256",
          "name": "_tokenId",
          "type": "uint256"
        }
      ],
      "name": "Transfer",
      "type": "event"
    },
    {
      "inputs": [
        {
          "internalType": "address",
          "name": "_to",
          "type": "address"
        },
        {
          "internalType": "uint256",
          "name": "_tokenId",
          "type": "uint256"
        }
      ],
      "name": "approve",
      "outputs": [],
      "stateMutability": "nonpayable",
      "type": "function"
    },
    {
      "inputs": [
        {
          "internalType": "address",
          "name": "_owner",
          "type": "address"
        }
      ],
      "name": "balanceOf",
      "outputs": [
        {
          "internalType": "uint256",
          "name": "",
          "type": "uint256"
        }
      ],
      "stateMutability": "view",
      "type": "function"
    },
    {
      "inputs": [
        {
          "internalType": "uint256",
          "name": "",
          "type": "uint256"
        }
      ],
      "name": "kryptoBirdz",
      "outputs": [
        {
          "internalType": "string",
          "name": "",
          "type": "string"
        }
      ],
      "stateMutability": "view",
      "type": "function"
    },
    {
      "inputs": [],
      "name": "name",
      "outputs": [
        {
          "internalType": "string",
          "name": "",
          "type": "string"
        }
      ],
      "stateMutability": "view",
      "type": "function"
    },
    {
      "inputs": [
        {
          "internalType": "uint256",
          "name": "_tokenId",
          "type": "uint256"
        }
      ],
      "name": "ownerOf",
      "outputs": [
        {
          "internalType": "address",
          "name": "",
          "type": "address"
        }
      ],
      "stateMutability": "view",
      "type": "function"
    },
    {
      "inputs": [
        {
          "internalType": "bytes4",
          "name": "interfaceId",
          "type": "bytes4"
        }
      ],
      "name": "supportsInterface",
      "outputs": [
        {
          "internalType": "bool",
          "name": "",
          "type": "bool"
        }
      ],
      "stateMutability": "view",
      "type": "function"
    },
    {
      "inputs": [],
      "name": "symobl",
      "outputs": [
        {
          "internalType": "string",
          "name": "",
          "type": "string"
        }
      ],
      "stateMutability": "view",
      "type": "function"
    },
    {
      "inputs": [
        {
          "internalType": "uint256",
          "name": "index",
          "type": "uint256"
        }
      ],
      "name": "tokenByIndex",
      "outputs": [
        {
          "internalType": "uint256",
          "name": "",
          "type": "uint256"
        }
      ],
      "stateMutability": "view",
      "type": "function"
    },
    {
      "inputs": [
        {
          "internalType": "address",
          "name": "owner",
          "type": "address"
        },
        {
          "internalType": "uint256",
          "name": "index",
          "type": "uint256"
        }
      ],
      "name": "tokenOfOwnerByIndex",
      "outputs": [
        {
          "internalType": "uint256",
          "name": "",
          "type": "uint256"
        }
      ],
      "stateMutability": "view",
      "type": "function"
    },
    {
      "inputs": [],
      "name": "totalSupply",
      "outputs": [
        {
          "internalType": "uint256",
          "name": "",
          "type": "uint256"
        }
      ],
      "stateMutability": "view",
      "type": "function"
    },
    {
      "inputs": [
        {
          "internalType": "address",
          "name": "_from",
          "type": "address"
        },
        {
          "internalType": "address",
          "name": "_to",
          "type": "address"
        },
        {
          "internalType": "uint256",
          "name": "_tokenId",
          "type": "uint256"
        }
      ],
      "name": "transferFrom",
      "outputs": [],
      "stateMutability": "nonpayable",
      "type": "function"
    },
    {
      "inputs": [
        {
          "internalType": "string",
          "name": "_kryptoBird",
          "type": "string"
        }
      ],
      "name": "mint",
      "outputs": [],
      "stateMutability": "nonpayable",
      "type": "function"
    }
  ],
  "bytecode": "0x60806040523480156200001157600080fd5b506040518060400160405280600a81526020017f4b727970746f42697264000000000000000000000000000000000000000000008152506040518060400160405280600681526020017f4b424952445a00000000000000000000000000000000000000000000000000008152508181816000908051906020019062000098929190620001c3565b508060019080519060200190620000b1929190620001c3565b505050620000e57f01ffc9a7a5cef8baa21ed3c5c0d7e23accb804b619e9333b597f47a0d84076e2620000ed60201b60201c565b50506200035b565b600060e01b817bffffffffffffffffffffffffffffffffffffffffffffffffffffffff1916141562000156576040517f08c379a00000000000000000000000000000000000000000000000000000000081526004016200014d90620002d4565b60405180910390fd5b600160026000837bffffffffffffffffffffffffffffffffffffffffffffffffffffffff19167bffffffffffffffffffffffffffffffffffffffffffffffffffffffff1916815260200190815260200160002060006101000a81548160ff02191690831515021790555050565b828054620001d19062000325565b90600052602060002090601f016020900481019282620001f5576000855562000241565b82601f106200021057805160ff191683800117855562000241565b8280016001018555821562000241579182015b828111156200024057825182559160200191906001019062000223565b5b50905062000250919062000254565b5090565b5b808211156200026f57600081600090555060010162000255565b5090565b600082825260208201905092915050565b7f496e76616c696420696e74657266616365207265717565737421000000000000600082015250565b6000620002bc601a8362000273565b9150620002c98262000284565b602082019050919050565b60006020820190508181036000830152620002ef81620002ad565b9050919050565b7f4e487b7100000000000000000000000000000000000000000000000000000000600052602260045260246000fd5b600060028204905060018216806200033e57607f821691505b60208210811415620003555762000354620002f6565b5b50919050565b611944806200036b6000396000f3fe608060405234801561001057600080fd5b50600436106100b45760003560e01c806334a1787b1161007157806334a1787b1461018d5780634f6ccce7146101ab5780636352211e146101db57806370a082311461020b57806393ab6e561461023b578063d85d3d271461026b576100b4565b806301ffc9a7146100b957806306fdde03146100e9578063095ea7b31461010757806318160ddd1461012357806323b872dd146101415780632f745c591461015d575b600080fd5b6100d360048036038101906100ce9190610f0f565b610287565b6040516100e09190610f57565b60405180910390f35b6100f16102ef565b6040516100fe919061100b565b60405180910390f35b610121600480360381019061011c91906110c1565b610381565b005b61012b61051d565b6040516101389190611110565b60405180910390f35b61015b6004803603810190610156919061112b565b61052a565b005b610177600480360381019061017291906110c1565b610542565b6040516101849190611110565b60405180910390f35b6101956105f2565b6040516101a2919061100b565b60405180910390f35b6101c560048036038101906101c0919061117e565b610684565b6040516101d29190611110565b60405180910390f35b6101f560048036038101906101f0919061117e565b6106f5565b60405161020291906111ba565b60405180910390f35b610225600480360381019061022091906111d5565b6107a7565b6040516102329190611110565b60405180910390f35b6102556004803603810190610250919061117e565b61085f565b604051610262919061100b565b60405180910390f35b61028560048036038101906102809190611337565b61090b565b005b600060026000837bffffffffffffffffffffffffffffffffffffffffffffffffffffffff19167bffffffffffffffffffffffffffffffffffffffffffffffffffffffff1916815260200190815260200160002060009054906101000a900460ff169050919050565b6060600080546102fe906113af565b80601f016020809104026020016040519081016040528092919081815260200182805461032a906113af565b80156103775780601f1061034c57610100808354040283529160200191610377565b820191906000526020600020905b81548152906001019060200180831161035a57829003601f168201915b5050505050905090565b600061038c826106f5565b90508073ffffffffffffffffffffffffffffffffffffffff168373ffffffffffffffffffffffffffffffffffffffff1614156103fd576040517f08c379a00000000000000000000000000000000000000000000000000000000081526004016103f49061142d565b60405180910390fd5b8073ffffffffffffffffffffffffffffffffffffffff163373ffffffffffffffffffffffffffffffffffffffff161461046b576040517f08c379a000000000000000000000000000000000000000000000000000000000815260040161046290611499565b60405180910390fd5b826005600084815260200190815260200160002060006101000a81548173ffffffffffffffffffffffffffffffffffffffff021916908373ffffffffffffffffffffffffffffffffffffffff160217905550818373ffffffffffffffffffffffffffffffffffffffff168273ffffffffffffffffffffffffffffffffffffffff167f8c5be1e5ebec7d5bd14f71427d1e84f3dd0314c0f7b2291e5b200ac8c7c3b92560405160405180910390a4505050565b6000600680549050905090565b6105343382610a0e565b61053d57600080fd5b505050565b600061054d836107a7565b821061058e576040517f08c379a000000000000000000000000000000000000000000000000000000000815260040161058590611505565b60405180910390fd5b600860008473ffffffffffffffffffffffffffffffffffffffff1673ffffffffffffffffffffffffffffffffffffffff16815260200190815260200160002082815481106105df576105de611525565b5b9060005260206000200154905092915050565b606060018054610601906113af565b80601f016020809104026020016040519081016040528092919081815260200182805461062d906113af565b801561067a5780601f1061064f5761010080835404028352916020019161067a565b820191906000526020600020905b81548152906001019060200180831161065d57829003601f168201915b5050505050905090565b600061068e61051d565b82106106cf576040517f08c379a00000000000000000000000000000000000000000000000000000000081526004016106c6906115a0565b60405180910390fd5b600682815481106106e3576106e2611525565b5b90600052602060002001549050919050565b6000806003600084815260200190815260200160002060009054906101000a900473ffffffffffffffffffffffffffffffffffffffff169050600073ffffffffffffffffffffffffffffffffffffffff168173ffffffffffffffffffffffffffffffffffffffff16141561079e576040517f08c379a00000000000000000000000000000000000000000000000000000000081526004016107959061160c565b60405180910390fd5b80915050919050565b60008073ffffffffffffffffffffffffffffffffffffffff168273ffffffffffffffffffffffffffffffffffffffff161415610818576040517f08c379a000000000000000000000000000000000000000000000000000000000815260040161080f9061160c565b60405180910390fd5b600460008373ffffffffffffffffffffffffffffffffffffffff1673ffffffffffffffffffffffffffffffffffffffff168152602001908152602001600020549050919050565b600a818154811061086f57600080fd5b90600052602060002001600091509050805461088a906113af565b80601f01602080910402602001604051908101604052809291908181526020018280546108b6906113af565b80156109035780601f106108d857610100808354040283529160200191610903565b820191906000526020600020905b8154815290600101906020018083116108e657829003601f168201915b505050505081565b600b8160405161091b9190611668565b908152602001604051809103902060009054906101000a900460ff1615610977576040517f08c379a000000000000000000000000000000000000000000000000000000000815260040161096e906116cb565b60405180910390fd5b600a819080600181540180825580915050600190039060005260206000200160009091909190915090805190602001906109b2929190610e00565b5060006001600a805490506109c7919061171a565b90506109d33382610a9e565b6001600b836040516109e59190611668565b908152602001604051809103902060006101000a81548160ff0219169083151502179055505050565b6000610a1982610abf565b15610a59576040517f08c379a0000000000000000000000000000000000000000000000000000000008152600401610a509061179a565b60405180910390fd5b6000610a64836106f5565b90508373ffffffffffffffffffffffffffffffffffffffff168173ffffffffffffffffffffffffffffffffffffffff161491505092915050565b610aa88282610b31565b610ab181610cf3565b610abb8282610d3c565b5050565b6000806003600084815260200190815260200160002060009054906101000a900473ffffffffffffffffffffffffffffffffffffffff169050600073ffffffffffffffffffffffffffffffffffffffff168173ffffffffffffffffffffffffffffffffffffffff161415915050919050565b600073ffffffffffffffffffffffffffffffffffffffff168273ffffffffffffffffffffffffffffffffffffffff161415610ba1576040517f08c379a0000000000000000000000000000000000000000000000000000000008152600401610b989061182c565b60405180910390fd5b610baa81610abf565b15610bea576040517f08c379a0000000000000000000000000000000000000000000000000000000008152600401610be190611898565b60405180910390fd5b816003600083815260200190815260200160002060006101000a81548173ffffffffffffffffffffffffffffffffffffffff021916908373ffffffffffffffffffffffffffffffffffffffff1602179055506001600460008473ffffffffffffffffffffffffffffffffffffffff1673ffffffffffffffffffffffffffffffffffffffff1681526020019081526020016000206000828254610c8c91906118b8565b92505081905550808273ffffffffffffffffffffffffffffffffffffffff16600073ffffffffffffffffffffffffffffffffffffffff167fddf252ad1be2c89b69c2b068fc378daa952ba7f163c4a11628f55a4df523b3ef60405160405180910390a45050565b6006805490506007600083815260200190815260200160002081905550600681908060018154018082558091505060019003906000526020600020016000909190919091505550565b600860008373ffffffffffffffffffffffffffffffffffffffff1673ffffffffffffffffffffffffffffffffffffffff168152602001908152602001600020805490506009600083815260200190815260200160002081905550600860008373ffffffffffffffffffffffffffffffffffffffff1673ffffffffffffffffffffffffffffffffffffffff1681526020019081526020016000208190806001815401808255809150506001900390600052602060002001600090919091909150555050565b828054610e0c906113af565b90600052602060002090601f016020900481019282610e2e5760008555610e75565b82601f10610e4757805160ff1916838001178555610e75565b82800160010185558215610e75579182015b82811115610e74578251825591602001919060010190610e59565b5b509050610e829190610e86565b5090565b5b80821115610e9f576000816000905550600101610e87565b5090565b6000604051905090565b600080fd5b600080fd5b60007fffffffff0000000000000000000000000000000000000000000000000000000082169050919050565b610eec81610eb7565b8114610ef757600080fd5b50565b600081359050610f0981610ee3565b92915050565b600060208284031215610f2557610f24610ead565b5b6000610f3384828501610efa565b91505092915050565b60008115159050919050565b610f5181610f3c565b82525050565b6000602082019050610f6c6000830184610f48565b92915050565b600081519050919050565b600082825260208201905092915050565b60005b83811015610fac578082015181840152602081019050610f91565b83811115610fbb576000848401525b50505050565b6000601f19601f8301169050919050565b6000610fdd82610f72565b610fe78185610f7d565b9350610ff7818560208601610f8e565b61100081610fc1565b840191505092915050565b600060208201905081810360008301526110258184610fd2565b905092915050565b600073ffffffffffffffffffffffffffffffffffffffff82169050919050565b60006110588261102d565b9050919050565b6110688161104d565b811461107357600080fd5b50565b6000813590506110858161105f565b92915050565b6000819050919050565b61109e8161108b565b81146110a957600080fd5b50565b6000813590506110bb81611095565b92915050565b600080604083850312156110d8576110d7610ead565b5b60006110e685828601611076565b92505060206110f7858286016110ac565b9150509250929050565b61110a8161108b565b82525050565b60006020820190506111256000830184611101565b92915050565b60008060006060848603121561114457611143610ead565b5b600061115286828701611076565b935050602061116386828701611076565b9250506040611174868287016110ac565b9150509250925092565b60006020828403121561119457611193610ead565b5b60006111a2848285016110ac565b91505092915050565b6111b48161104d565b82525050565b60006020820190506111cf60008301846111ab565b92915050565b6000602082840312156111eb576111ea610ead565b5b60006111f984828501611076565b91505092915050565b600080fd5b600080fd5b7f4e487b7100000000000000000000000000000000000000000000000000000000600052604160045260246000fd5b61124482610fc1565b810181811067ffffffffffffffff821117156112635761126261120c565b5b80604052505050565b6000611276610ea3565b9050611282828261123b565b919050565b600067ffffffffffffffff8211156112a2576112a161120c565b5b6112ab82610fc1565b9050602081019050919050565b82818337600083830152505050565b60006112da6112d584611287565b61126c565b9050828152602081018484840111156112f6576112f5611207565b5b6113018482856112b8565b509392505050565b600082601f83011261131e5761131d611202565b5b813561132e8482602086016112c7565b91505092915050565b60006020828403121561134d5761134c610ead565b5b600082013567ffffffffffffffff81111561136b5761136a610eb2565b5b61137784828501611309565b91505092915050565b7f4e487b7100000000000000000000000000000000000000000000000000000000600052602260045260246000fd5b600060028204905060018216806113c757607f821691505b602082108114156113db576113da611380565b5b50919050565b7f417070726f76616c20746f2063757272656e74206f776e657200000000000000600082015250565b6000611417601983610f7d565b9150611422826113e1565b602082019050919050565b600060208201905081810360008301526114468161140a565b9050919050565b7f43757272656e742063616c6c6572206973206e6f7420746865206f776e657200600082015250565b6000611483601f83610f7d565b915061148e8261144d565b602082019050919050565b600060208201905081810360008301526114b281611476565b9050919050565b7f6f776e657220696e646578206973206f7574206f6620626f756e642100000000600082015250565b60006114ef601c83610f7d565b91506114fa826114b9565b602082019050919050565b6000602082019050818103600083015261151e816114e2565b9050919050565b7f4e487b7100000000000000000000000000000000000000000000000000000000600052603260045260246000fd5b7f676c6f62616c20696e646578206973206f7574206f6620626f756e6421000000600082015250565b600061158a601d83610f7d565b915061159582611554565b602082019050919050565b600060208201905081810360008301526115b98161157d565b9050919050565b7f496e76616c6964206f776e657220616464726573730000000000000000000000600082015250565b60006115f6601583610f7d565b9150611601826115c0565b602082019050919050565b60006020820190508181036000830152611625816115e9565b9050919050565b600081905092915050565b600061164282610f72565b61164c818561162c565b935061165c818560208601610f8e565b80840191505092915050565b60006116748284611637565b915081905092915050565b7f4b727970746f204269726420616c726561647920657869737473210000000000600082015250565b60006116b5601b83610f7d565b91506116c08261167f565b602082019050919050565b600060208201905081810360008301526116e4816116a8565b9050919050565b7f4e487b7100000000000000000000000000000000000000000000000000000000600052601160045260246000fd5b60006117258261108b565b91506117308361108b565b925082821015611743576117426116eb565b5b828203905092915050565b7f546f6b656e206e6f7420666f756e642100000000000000000000000000000000600082015250565b6000611784601083610f7d565b915061178f8261174e565b602082019050919050565b600060208201905081810360008301526117b381611777565b9050919050565b7f4552433732313a206d696e74696e6720746f20746865207a65726f206164647260008201527f6573732e00000000000000000000000000000000000000000000000000000000602082015250565b6000611816602483610f7d565b9150611821826117ba565b604082019050919050565b6000602082019050818103600083015261184581611809565b9050919050565b7f4552433732313a20746f6b656e20616c7265616479206d696e74696e67000000600082015250565b6000611882601d83610f7d565b915061188d8261184c565b602082019050919050565b600060208201905081810360008301526118b181611875565b9050919050565b60006118c38261108b565b91506118ce8361108b565b9250827fffffffffffffffffffffffffffffffffffffffffffffffffffffffffffffffff03821115611903576119026116eb565b5b82820190509291505056fea264697066735822122035f6b296fe9d8c5572cad154592453f3aad2242ebff9a671d46780ae9dd926fb64736f6c634300080b0033",
  "immutableReferences": {},
  "source": "// SPDX-License-Identifier: MIT\npragma solidity ^0.8.0;\n\nimport \"./ERC721Connector.sol\";\n\ncontract KryptoBird is ERC721Connector {\n    string[] public kryptoBirdz;\n    mapping(string => bool) private _kryptoBirdExists;\n\n    constructor() ERC721Connector(\"KryptoBird\", \"KBIRDZ\") {}\n\n    function mint(string memory _kryptoBird) public {\n        require(!_kryptoBirdExists[_kryptoBird], \"Krypto Bird already exists!\");\n\n        kryptoBirdz.push(_kryptoBird);\n        uint256 _id = kryptoBirdz.length - 1;\n        _mint(msg.sender, _id);\n\n        _kryptoBirdExists[_kryptoBird] = true;\n    }\n}\n",
  "sourcePath": "/home/dashzou/Desktop/NFTS/frist_project/src/contracts/KryptoBirdz.sol",
  "compiler": {
    "name": "solc",
    "version": "0.8.11+commit.d7f03943.Emscripten.clang"
  },
  "schemaVersion": "3.4.4",
  "updatedAt": "2022-02-11T15:29:21.551Z",
  "devdoc": {
    "kind": "dev",
    "methods": {},
    "version": 1
  },
  "userdoc": {
    "kind": "user",
    "methods": {},
    "version": 1
  }
}