{
  "contractName": "KryptoBird",
  "abi": [
    {
      "inputs": [],
      "stateMutability": "nonpayable",
      "type": "constructor"
    },
    {
      "anonymous": false,
      "inputs": [
        {
          "indexed": true,
          "internalType": "address",
          "name": "_owner",
          "type": "address"
        },
        {
          "indexed": true,
          "internalType": "address",
          "name": "_approved",
          "type": "address"
        },
        {
          "indexed": true,
          "internalType": "uint256",
          "name": "_tokenId",
          "type": "uint256"
        }
      ],
      "name": "Approval",
      "type": "event"
    },
    {
      "anonymous": false,
      "inputs": [
        {
          "indexed": true,
          "internalType": "address",
          "name": "_from",
          "type": "address"
        },
        {
          "indexed": true,
          "internalType": "address",
          "name": "_to",
          "type": "address"
        },
        {
          "indexed": true,
          "internalType": "uint256",
          "name": "_tokenId",
          "type": "uint256"
        }
      ],
      "name": "Transfer",
      "type": "event"
    },
    {
      "inputs": [
        {
          "internalType": "address",
          "name": "_to",
          "type": "address"
        },
        {
          "internalType": "uint256",
          "name": "_tokenId",
          "type": "uint256"
        }
      ],
      "name": "approve",
      "outputs": [],
      "stateMutability": "nonpayable",
      "type": "function"
    },
    {
      "inputs": [
        {
          "internalType": "address",
          "name": "_owner",
          "type": "address"
        }
      ],
      "name": "balanceOf",
      "outputs": [
        {
          "internalType": "uint256",
          "name": "",
          "type": "uint256"
        }
      ],
      "stateMutability": "view",
      "type": "function",
      "constant": true
    },
    {
      "inputs": [
        {
          "internalType": "uint256",
          "name": "",
          "type": "uint256"
        }
      ],
      "name": "kryptoBirdz",
      "outputs": [
        {
          "internalType": "string",
          "name": "",
          "type": "string"
        }
      ],
      "stateMutability": "view",
      "type": "function",
      "constant": true
    },
    {
      "inputs": [],
      "name": "name",
      "outputs": [
        {
          "internalType": "string",
          "name": "",
          "type": "string"
        }
      ],
      "stateMutability": "view",
      "type": "function",
      "constant": true
    },
    {
      "inputs": [
        {
          "internalType": "uint256",
          "name": "_tokenId",
          "type": "uint256"
        }
      ],
      "name": "ownerOf",
      "outputs": [
        {
          "internalType": "address",
          "name": "",
          "type": "address"
        }
      ],
      "stateMutability": "view",
      "type": "function",
      "constant": true
    },
    {
      "inputs": [
        {
          "internalType": "bytes4",
          "name": "interfaceId",
          "type": "bytes4"
        }
      ],
      "name": "supportsInterface",
      "outputs": [
        {
          "internalType": "bool",
          "name": "",
          "type": "bool"
        }
      ],
      "stateMutability": "view",
      "type": "function",
      "constant": true
    },
    {
      "inputs": [],
      "name": "symbol",
      "outputs": [
        {
          "internalType": "string",
          "name": "",
          "type": "string"
        }
      ],
      "stateMutability": "view",
      "type": "function",
      "constant": true
    },
    {
      "inputs": [
        {
          "internalType": "uint256",
          "name": "index",
          "type": "uint256"
        }
      ],
      "name": "tokenByIndex",
      "outputs": [
        {
          "internalType": "uint256",
          "name": "",
          "type": "uint256"
        }
      ],
      "stateMutability": "view",
      "type": "function",
      "constant": true
    },
    {
      "inputs": [
        {
          "internalType": "address",
          "name": "owner",
          "type": "address"
        },
        {
          "internalType": "uint256",
          "name": "index",
          "type": "uint256"
        }
      ],
      "name": "tokenOfOwnerByIndex",
      "outputs": [
        {
          "internalType": "uint256",
          "name": "",
          "type": "uint256"
        }
      ],
      "stateMutability": "view",
      "type": "function",
      "constant": true
    },
    {
      "inputs": [],
      "name": "totalSupply",
      "outputs": [
        {
          "internalType": "uint256",
          "name": "",
          "type": "uint256"
        }
      ],
      "stateMutability": "view",
      "type": "function",
      "constant": true
    },
    {
      "inputs": [
        {
          "internalType": "address",
          "name": "_from",
          "type": "address"
        },
        {
          "internalType": "address",
          "name": "_to",
          "type": "address"
        },
        {
          "internalType": "uint256",
          "name": "_tokenId",
          "type": "uint256"
        }
      ],
      "name": "transferFrom",
      "outputs": [],
      "stateMutability": "nonpayable",
      "type": "function"
    },
    {
      "inputs": [
        {
          "internalType": "string",
          "name": "_kryptoBird",
          "type": "string"
        }
      ],
      "name": "mint",
      "outputs": [],
      "stateMutability": "nonpayable",
      "type": "function"
    }
  ],
  "bytecode": "0x60806040523480156200001157600080fd5b506040518060400160405280600a81526020017f4b727970746f42697264000000000000000000000000000000000000000000008152506040518060400160405280600681526020017f4b424952445a00000000000000000000000000000000000000000000000000008152508181620000b17f01ffc9a7a5cef8baa21ed3c5c0d7e23accb804b619e9333b597f47a0d84076e26200024c60201b60201c565b8160019080519060200190620000c992919062000321565b508060029080519060200190620000e292919062000321565b50620001367f13b182f4c0e5b2efbac0efe6cf6d756c8b89f4b79c5707a043ed9ea740574ee97f7feaf19471f34a12a7eaf32d5f3090aa2260ea8624dc8a138e74e0bf0f623076186200024c60201b60201c565b5050620001cf7f8c51fd5fcf1f456ec4eb0f32f68d83471264fe082fac12bcbfd2fa4be9eed6c77f22c82707ba960a14c7592ffb6b8cfaa073fed0048a84cc7fa41f6b5bd8e7f2e47f3a6eb71757dfc6e784c1459d26270140c2c147d95ca985c80026fc5301c3eca17f8a7e378434598edc36d108689a030cbc9d7d465de4f74c71bae1028eed6a881b1818186200024c60201b60201c565b620002447fc53637662700e6c65104059db8bba34439e0c32483ab7c34e3ccae52c73954957f8230223f691b981717299fae9549350a0d894555723531f02108b1f522c1a7977f6da5e1284143cdd2d15038a59bde3be031250f00291d64494c12d967b3a4e0c318186200024c60201b60201c565b5050620004b9565b600060e01b817bffffffffffffffffffffffffffffffffffffffffffffffffffffffff19161415620002b5576040517f08c379a0000000000000000000000000000000000000000000000000000000008152600401620002ac9062000432565b60405180910390fd5b6001600080837bffffffffffffffffffffffffffffffffffffffffffffffffffffffff19167bffffffffffffffffffffffffffffffffffffffffffffffffffffffff1916815260200190815260200160002060006101000a81548160ff02191690831515021790555050565b8280546200032f9062000483565b90600052602060002090601f0160209004810192826200035357600085556200039f565b82601f106200036e57805160ff19168380011785556200039f565b828001600101855582156200039f579182015b828111156200039e57825182559160200191906001019062000381565b5b509050620003ae9190620003b2565b5090565b5b80821115620003cd576000816000905550600101620003b3565b5090565b600082825260208201905092915050565b7f496e76616c696420696e74657266616365207265717565737421000000000000600082015250565b60006200041a601a83620003d1565b91506200042782620003e2565b602082019050919050565b600060208201905081810360008301526200044d816200040b565b9050919050565b7f4e487b7100000000000000000000000000000000000000000000000000000000600052602260045260246000fd5b600060028204905060018216806200049c57607f821691505b60208210811415620004b357620004b262000454565b5b50919050565b611daa80620004c96000396000f3fe608060405234801561001057600080fd5b50600436106100b45760003560e01c80634f6ccce7116100715780634f6ccce71461018d5780636352211e146101bd57806370a08231146101ed57806393ab6e561461021d57806395d89b411461024d578063d85d3d271461026b576100b4565b806301ffc9a7146100b957806306fdde03146100e9578063095ea7b31461010757806318160ddd1461012357806323b872dd146101415780632f745c591461015d575b600080fd5b6100d360048036038101906100ce91906111e5565b610287565b6040516100e0919061122d565b60405180910390f35b6100f16102ee565b6040516100fe91906112e1565b60405180910390f35b610121600480360381019061011c9190611397565b610380565b005b61012b61051c565b60405161013891906113e6565b60405180910390f35b61015b60048036038101906101569190611401565b610529565b005b61017760048036038101906101729190611397565b61054c565b60405161018491906113e6565b60405180910390f35b6101a760048036038101906101a29190611454565b6105fc565b6040516101b491906113e6565b60405180910390f35b6101d760048036038101906101d29190611454565b61066d565b6040516101e49190611490565b60405180910390f35b610207600480360381019061020291906114ab565b61071f565b60405161021491906113e6565b60405180910390f35b61023760048036038101906102329190611454565b6107de565b60405161024491906112e1565b60405180910390f35b61025561088a565b60405161026291906112e1565b60405180910390f35b6102856004803603810190610280919061160d565b61091c565b005b6000806000837bffffffffffffffffffffffffffffffffffffffffffffffffffffffff19167bffffffffffffffffffffffffffffffffffffffffffffffffffffffff1916815260200190815260200160002060009054906101000a900460ff169050919050565b6060600180546102fd90611685565b80601f016020809104026020016040519081016040528092919081815260200182805461032990611685565b80156103765780601f1061034b57610100808354040283529160200191610376565b820191906000526020600020905b81548152906001019060200180831161035957829003601f168201915b5050505050905090565b600061038b8261066d565b90508073ffffffffffffffffffffffffffffffffffffffff168373ffffffffffffffffffffffffffffffffffffffff1614156103fc576040517f08c379a00000000000000000000000000000000000000000000000000000000081526004016103f390611703565b60405180910390fd5b8073ffffffffffffffffffffffffffffffffffffffff163373ffffffffffffffffffffffffffffffffffffffff161461046a576040517f08c379a00000000000000000000000000000000000000000000000000000000081526004016104619061176f565b60405180910390fd5b826005600084815260200190815260200160002060006101000a81548173ffffffffffffffffffffffffffffffffffffffff021916908373ffffffffffffffffffffffffffffffffffffffff160217905550818373ffffffffffffffffffffffffffffffffffffffff168273ffffffffffffffffffffffffffffffffffffffff167f8c5be1e5ebec7d5bd14f71427d1e84f3dd0314c0f7b2291e5b200ac8c7c3b92560405160405180910390a4505050565b6000600680549050905090565b6105333382610a1f565b61053c57600080fd5b610547838383610aaf565b505050565b60006105578361071f565b8210610598576040517f08c379a000000000000000000000000000000000000000000000000000000000815260040161058f906117db565b60405180910390fd5b600860008473ffffffffffffffffffffffffffffffffffffffff1673ffffffffffffffffffffffffffffffffffffffff16815260200190815260200160002082815481106105e9576105e86117fb565b5b9060005260206000200154905092915050565b600061060661051c565b8210610647576040517f08c379a000000000000000000000000000000000000000000000000000000000815260040161063e90611876565b60405180910390fd5b6006828154811061065b5761065a6117fb565b5b90600052602060002001549050919050565b6000806003600084815260200190815260200160002060009054906101000a900473ffffffffffffffffffffffffffffffffffffffff169050600073ffffffffffffffffffffffffffffffffffffffff168173ffffffffffffffffffffffffffffffffffffffff161415610716576040517f08c379a000000000000000000000000000000000000000000000000000000000815260040161070d906118e2565b60405180910390fd5b80915050919050565b60008073ffffffffffffffffffffffffffffffffffffffff168273ffffffffffffffffffffffffffffffffffffffff161415610790576040517f08c379a0000000000000000000000000000000000000000000000000000000008152600401610787906118e2565b60405180910390fd5b6107d7600460008473ffffffffffffffffffffffffffffffffffffffff1673ffffffffffffffffffffffffffffffffffffffff168152602001908152602001600020610cd5565b9050919050565b600a81815481106107ee57600080fd5b90600052602060002001600091509050805461080990611685565b80601f016020809104026020016040519081016040528092919081815260200182805461083590611685565b80156108825780601f1061085757610100808354040283529160200191610882565b820191906000526020600020905b81548152906001019060200180831161086557829003601f168201915b505050505081565b60606002805461089990611685565b80601f01602080910402602001604051908101604052809291908181526020018280546108c590611685565b80156109125780601f106108e757610100808354040283529160200191610912565b820191906000526020600020905b8154815290600101906020018083116108f557829003601f168201915b5050505050905090565b600b8160405161092c919061193e565b908152602001604051809103902060009054906101000a900460ff1615610988576040517f08c379a000000000000000000000000000000000000000000000000000000000815260040161097f906119a1565b60405180910390fd5b600a819080600181540180825580915050600190039060005260206000200160009091909190915090805190602001906109c39291906110d6565b5060006001600a805490506109d891906119f0565b90506109e43382610ce3565b6001600b836040516109f6919061193e565b908152602001604051809103902060006101000a81548160ff0219169083151502179055505050565b6000610a2a82610d04565b15610a6a576040517f08c379a0000000000000000000000000000000000000000000000000000000008152600401610a6190611a70565b60405180910390fd5b6000610a758361066d565b90508373ffffffffffffffffffffffffffffffffffffffff168173ffffffffffffffffffffffffffffffffffffffff161491505092915050565b600073ffffffffffffffffffffffffffffffffffffffff168273ffffffffffffffffffffffffffffffffffffffff161415610b1f576040517f08c379a0000000000000000000000000000000000000000000000000000000008152600401610b1690611b02565b60405180910390fd5b610b288161066d565b73ffffffffffffffffffffffffffffffffffffffff168373ffffffffffffffffffffffffffffffffffffffff1614610b95576040517f08c379a0000000000000000000000000000000000000000000000000000000008152600401610b8c90611b94565b60405180910390fd5b610bdc600460008573ffffffffffffffffffffffffffffffffffffffff1673ffffffffffffffffffffffffffffffffffffffff168152602001908152602001600020610d76565b610c23600460008473ffffffffffffffffffffffffffffffffffffffff1673ffffffffffffffffffffffffffffffffffffffff168152602001908152602001600020610d99565b816003600083815260200190815260200160002060006101000a81548173ffffffffffffffffffffffffffffffffffffffff021916908373ffffffffffffffffffffffffffffffffffffffff160217905550808273ffffffffffffffffffffffffffffffffffffffff168473ffffffffffffffffffffffffffffffffffffffff167fddf252ad1be2c89b69c2b068fc378daa952ba7f163c4a11628f55a4df523b3ef60405160405180910390a4505050565b600081600001549050919050565b610ced8282610db8565b610cf681610f6a565b610d008282610fb3565b5050565b6000806003600084815260200190815260200160002060009054906101000a900473ffffffffffffffffffffffffffffffffffffffff169050600073ffffffffffffffffffffffffffffffffffffffff168173ffffffffffffffffffffffffffffffffffffffff161415915050919050565b610d8e6001826000015461107790919063ffffffff16565b816000018190555050565b6001816000016000828254610dae9190611bb4565b9250508190555050565b600073ffffffffffffffffffffffffffffffffffffffff168273ffffffffffffffffffffffffffffffffffffffff161415610e28576040517f08c379a0000000000000000000000000000000000000000000000000000000008152600401610e1f90611c7c565b60405180910390fd5b610e3181610d04565b15610e71576040517f08c379a0000000000000000000000000000000000000000000000000000000008152600401610e6890611ce8565b60405180910390fd5b816003600083815260200190815260200160002060006101000a81548173ffffffffffffffffffffffffffffffffffffffff021916908373ffffffffffffffffffffffffffffffffffffffff160217905550610f0a600460008473ffffffffffffffffffffffffffffffffffffffff1673ffffffffffffffffffffffffffffffffffffffff168152602001908152602001600020610d99565b808273ffffffffffffffffffffffffffffffffffffffff16600073ffffffffffffffffffffffffffffffffffffffff167fddf252ad1be2c89b69c2b068fc378daa952ba7f163c4a11628f55a4df523b3ef60405160405180910390a45050565b6006805490506007600083815260200190815260200160002081905550600681908060018154018082558091505060019003906000526020600020016000909190919091505550565b600860008373ffffffffffffffffffffffffffffffffffffffff1673ffffffffffffffffffffffffffffffffffffffff168152602001908152602001600020805490506009600083815260200190815260200160002081905550600860008373ffffffffffffffffffffffffffffffffffffffff1673ffffffffffffffffffffffffffffffffffffffff1681526020019081526020016000208190806001815401808255809150506001900390600052602060002001600090919091909150555050565b6000828211156110bc576040517f08c379a00000000000000000000000000000000000000000000000000000000081526004016110b390611d54565b60405180910390fd5b600082846110ca91906119f0565b90508091505092915050565b8280546110e290611685565b90600052602060002090601f016020900481019282611104576000855561114b565b82601f1061111d57805160ff191683800117855561114b565b8280016001018555821561114b579182015b8281111561114a57825182559160200191906001019061112f565b5b509050611158919061115c565b5090565b5b8082111561117557600081600090555060010161115d565b5090565b6000604051905090565b600080fd5b600080fd5b60007fffffffff0000000000000000000000000000000000000000000000000000000082169050919050565b6111c28161118d565b81146111cd57600080fd5b50565b6000813590506111df816111b9565b92915050565b6000602082840312156111fb576111fa611183565b5b6000611209848285016111d0565b91505092915050565b60008115159050919050565b61122781611212565b82525050565b6000602082019050611242600083018461121e565b92915050565b600081519050919050565b600082825260208201905092915050565b60005b83811015611282578082015181840152602081019050611267565b83811115611291576000848401525b50505050565b6000601f19601f8301169050919050565b60006112b382611248565b6112bd8185611253565b93506112cd818560208601611264565b6112d681611297565b840191505092915050565b600060208201905081810360008301526112fb81846112a8565b905092915050565b600073ffffffffffffffffffffffffffffffffffffffff82169050919050565b600061132e82611303565b9050919050565b61133e81611323565b811461134957600080fd5b50565b60008135905061135b81611335565b92915050565b6000819050919050565b61137481611361565b811461137f57600080fd5b50565b6000813590506113918161136b565b92915050565b600080604083850312156113ae576113ad611183565b5b60006113bc8582860161134c565b92505060206113cd85828601611382565b9150509250929050565b6113e081611361565b82525050565b60006020820190506113fb60008301846113d7565b92915050565b60008060006060848603121561141a57611419611183565b5b60006114288682870161134c565b93505060206114398682870161134c565b925050604061144a86828701611382565b9150509250925092565b60006020828403121561146a57611469611183565b5b600061147884828501611382565b91505092915050565b61148a81611323565b82525050565b60006020820190506114a56000830184611481565b92915050565b6000602082840312156114c1576114c0611183565b5b60006114cf8482850161134c565b91505092915050565b600080fd5b600080fd5b7f4e487b7100000000000000000000000000000000000000000000000000000000600052604160045260246000fd5b61151a82611297565b810181811067ffffffffffffffff82111715611539576115386114e2565b5b80604052505050565b600061154c611179565b90506115588282611511565b919050565b600067ffffffffffffffff821115611578576115776114e2565b5b61158182611297565b9050602081019050919050565b82818337600083830152505050565b60006115b06115ab8461155d565b611542565b9050828152602081018484840111156115cc576115cb6114dd565b5b6115d784828561158e565b509392505050565b600082601f8301126115f4576115f36114d8565b5b813561160484826020860161159d565b91505092915050565b60006020828403121561162357611622611183565b5b600082013567ffffffffffffffff81111561164157611640611188565b5b61164d848285016115df565b91505092915050565b7f4e487b7100000000000000000000000000000000000000000000000000000000600052602260045260246000fd5b6000600282049050600182168061169d57607f821691505b602082108114156116b1576116b0611656565b5b50919050565b7f417070726f76616c20746f2063757272656e74206f776e657200000000000000600082015250565b60006116ed601983611253565b91506116f8826116b7565b602082019050919050565b6000602082019050818103600083015261171c816116e0565b9050919050565b7f43757272656e742063616c6c6572206973206e6f7420746865206f776e657200600082015250565b6000611759601f83611253565b915061176482611723565b602082019050919050565b600060208201905081810360008301526117888161174c565b9050919050565b7f6f776e657220696e646578206973206f7574206f6620626f756e642100000000600082015250565b60006117c5601c83611253565b91506117d08261178f565b602082019050919050565b600060208201905081810360008301526117f4816117b8565b9050919050565b7f4e487b7100000000000000000000000000000000000000000000000000000000600052603260045260246000fd5b7f676c6f62616c20696e646578206973206f7574206f6620626f756e6421000000600082015250565b6000611860601d83611253565b915061186b8261182a565b602082019050919050565b6000602082019050818103600083015261188f81611853565b9050919050565b7f496e76616c6964206f776e657220616464726573730000000000000000000000600082015250565b60006118cc601583611253565b91506118d782611896565b602082019050919050565b600060208201905081810360008301526118fb816118bf565b9050919050565b600081905092915050565b600061191882611248565b6119228185611902565b9350611932818560208601611264565b80840191505092915050565b600061194a828461190d565b915081905092915050565b7f4b727970746f204269726420616c726561647920657869737473210000000000600082015250565b600061198b601b83611253565b915061199682611955565b602082019050919050565b600060208201905081810360008301526119ba8161197e565b9050919050565b7f4e487b7100000000000000000000000000000000000000000000000000000000600052601160045260246000fd5b60006119fb82611361565b9150611a0683611361565b925082821015611a1957611a186119c1565b5b828203905092915050565b7f546f6b656e206e6f7420666f756e642100000000000000000000000000000000600082015250565b6000611a5a601083611253565b9150611a6582611a24565b602082019050919050565b60006020820190508181036000830152611a8981611a4d565b9050919050565b7f455243373231205472616e7366657220746f20746865207a65726f206164647260008201527f6573730000000000000000000000000000000000000000000000000000000000602082015250565b6000611aec602383611253565b9150611af782611a90565b604082019050919050565b60006020820190508181036000830152611b1b81611adf565b9050919050565b7f547279696e6720746f207472616e73666572206120746f6b656e20746865206160008201527f64647265737320646f6573206e6f74206f776e21000000000000000000000000602082015250565b6000611b7e603483611253565b9150611b8982611b22565b604082019050919050565b60006020820190508181036000830152611bad81611b71565b9050919050565b6000611bbf82611361565b9150611bca83611361565b9250827fffffffffffffffffffffffffffffffffffffffffffffffffffffffffffffffff03821115611bff57611bfe6119c1565b5b828201905092915050565b7f4552433732313a206d696e74696e6720746f20746865207a65726f206164647260008201527f6573732e00000000000000000000000000000000000000000000000000000000602082015250565b6000611c66602483611253565b9150611c7182611c0a565b604082019050919050565b60006020820190508181036000830152611c9581611c59565b9050919050565b7f4552433732313a20746f6b656e20616c7265616479206d696e74696e67000000600082015250565b6000611cd2601d83611253565b9150611cdd82611c9c565b602082019050919050565b60006020820190508181036000830152611d0181611cc5565b9050919050565b7f536166654d6174683a205375627472616374696f6e204f766572666c6f770000600082015250565b6000611d3e601e83611253565b9150611d4982611d08565b602082019050919050565b60006020820190508181036000830152611d6d81611d31565b905091905056fea2646970667358221220d621e907dbbbbf8d25e17df83baf3d2623a1f9daf3eae2e98c05699436c5dd4f64736f6c634300080c0033",
  "immutableReferences": {},
  "source": "// SPDX-License-Identifier: MIT\npragma solidity ^0.8.0;\n\nimport \"./ERC721Connector.sol\";\n\ncontract KryptoBird is ERC721Connector {\n    string[] public kryptoBirdz;\n    mapping(string => bool) private _kryptoBirdExists;\n\n    constructor() ERC721Connector(\"KryptoBird\", \"KBIRDZ\") {}\n\n    function mint(string memory _kryptoBird) public {\n        require(!_kryptoBirdExists[_kryptoBird], \"Krypto Bird already exists!\");\n\n        kryptoBirdz.push(_kryptoBird);\n        uint256 _id = kryptoBirdz.length - 1;\n        _mint(msg.sender, _id);\n\n        _kryptoBirdExists[_kryptoBird] = true;\n    }\n}\n",
  "sourcePath": "/home/dashzou/Desktop/NFTS/frist_project/src/contracts/KryptoBirdz.sol",
  "compiler": {
    "name": "solc",
    "version": "0.8.12+commit.f00d7308.Emscripten.clang"
  },
  "schemaVersion": "3.4.4",
  "updatedAt": "2022-02-22T19:21:32.940Z",
  "networkType": "ethereum",
  "devdoc": {
    "kind": "dev",
    "methods": {},
    "version": 1
  },
  "userdoc": {
    "kind": "user",
    "methods": {},
    "version": 1
  }
}