{
  "contractName": "KryptoBird",
  "abi": [
    {
      "inputs": [],
      "stateMutability": "nonpayable",
      "type": "constructor"
    },
    {
      "anonymous": false,
      "inputs": [
        {
          "indexed": true,
          "internalType": "address",
          "name": "from",
          "type": "address"
        },
        {
          "indexed": true,
          "internalType": "address",
          "name": "to",
          "type": "address"
        },
        {
          "indexed": true,
          "internalType": "uint256",
          "name": "tokenId",
          "type": "uint256"
        }
      ],
      "name": "Transfer",
      "type": "event"
    },
    {
      "inputs": [
        {
          "internalType": "address",
          "name": "_owner",
          "type": "address"
        }
      ],
      "name": "balanceOf",
      "outputs": [
        {
          "internalType": "uint256",
          "name": "",
          "type": "uint256"
        }
      ],
      "stateMutability": "view",
      "type": "function",
      "constant": true
    },
    {
      "inputs": [
        {
          "internalType": "uint256",
          "name": "",
          "type": "uint256"
        }
      ],
      "name": "kryptoBirdz",
      "outputs": [
        {
          "internalType": "string",
          "name": "",
          "type": "string"
        }
      ],
      "stateMutability": "view",
      "type": "function",
      "constant": true
    },
    {
      "inputs": [],
      "name": "name",
      "outputs": [
        {
          "internalType": "string",
          "name": "",
          "type": "string"
        }
      ],
      "stateMutability": "view",
      "type": "function",
      "constant": true
    },
    {
      "inputs": [
        {
          "internalType": "uint256",
          "name": "_tokenId",
          "type": "uint256"
        }
      ],
      "name": "ownerOf",
      "outputs": [
        {
          "internalType": "address",
          "name": "",
          "type": "address"
        }
      ],
      "stateMutability": "view",
      "type": "function",
      "constant": true
    },
    {
      "inputs": [],
      "name": "symobl",
      "outputs": [
        {
          "internalType": "string",
          "name": "",
          "type": "string"
        }
      ],
      "stateMutability": "view",
      "type": "function",
      "constant": true
    },
    {
      "inputs": [],
      "name": "totalSupply",
      "outputs": [
        {
          "internalType": "uint256",
          "name": "",
          "type": "uint256"
        }
      ],
      "stateMutability": "view",
      "type": "function",
      "constant": true
    },
    {
      "inputs": [
        {
          "internalType": "string",
          "name": "_kryptoBird",
          "type": "string"
        }
      ],
      "name": "mint",
      "outputs": [],
      "stateMutability": "nonpayable",
      "type": "function"
    }
  ],
  "bytecode": "0x60806040523480156200001157600080fd5b506040518060400160405280600a81526020017f4b727970746f42697264000000000000000000000000000000000000000000008152506040518060400160405280600681526020017f4b424952445a00000000000000000000000000000000000000000000000000008152508181816000908051906020019062000098929190620000bc565b508060019080519060200190620000b1929190620000bc565b5050505050620001d1565b828054620000ca906200019b565b90600052602060002090601f016020900481019282620000ee57600085556200013a565b82601f106200010957805160ff19168380011785556200013a565b828001600101855582156200013a579182015b82811115620001395782518255916020019190600101906200011c565b5b5090506200014991906200014d565b5090565b5b80821115620001685760008160009055506001016200014e565b5090565b7f4e487b7100000000000000000000000000000000000000000000000000000000600052602260045260246000fd5b60006002820490506001821680620001b457607f821691505b60208210811415620001cb57620001ca6200016c565b5b50919050565b610ff480620001e16000396000f3fe608060405234801561001057600080fd5b506004361061007d5760003560e01c80636352211e1161005b5780636352211e146100dc57806370a082311461010c57806393ab6e561461013c578063d85d3d271461016c5761007d565b806306fdde031461008257806318160ddd146100a057806334a1787b146100be575b600080fd5b61008a610188565b6040516100979190610985565b60405180910390f35b6100a861021a565b6040516100b591906109c0565b60405180910390f35b6100c6610227565b6040516100d39190610985565b60405180910390f35b6100f660048036038101906100f19190610a1b565b6102b9565b6040516101039190610a89565b60405180910390f35b61012660048036038101906101219190610ad0565b61036b565b60405161013391906109c0565b60405180910390f35b61015660048036038101906101519190610a1b565b610423565b6040516101639190610985565b60405180910390f35b61018660048036038101906101819190610c32565b6104cf565b005b60606000805461019790610caa565b80601f01602080910402602001604051908101604052809291908181526020018280546101c390610caa565b80156102105780601f106101e557610100808354040283529160200191610210565b820191906000526020600020905b8154815290600101906020018083116101f357829003601f168201915b5050505050905090565b6000600480549050905090565b60606001805461023690610caa565b80601f016020809104026020016040519081016040528092919081815260200182805461026290610caa565b80156102af5780601f10610284576101008083540402835291602001916102af565b820191906000526020600020905b81548152906001019060200180831161029257829003601f168201915b5050505050905090565b6000806002600084815260200190815260200160002060009054906101000a900473ffffffffffffffffffffffffffffffffffffffff169050600073ffffffffffffffffffffffffffffffffffffffff168173ffffffffffffffffffffffffffffffffffffffff161415610362576040517f08c379a000000000000000000000000000000000000000000000000000000000815260040161035990610d28565b60405180910390fd5b80915050919050565b60008073ffffffffffffffffffffffffffffffffffffffff168273ffffffffffffffffffffffffffffffffffffffff1614156103dc576040517f08c379a00000000000000000000000000000000000000000000000000000000081526004016103d390610d28565b60405180910390fd5b600360008373ffffffffffffffffffffffffffffffffffffffff1673ffffffffffffffffffffffffffffffffffffffff168152602001908152602001600020549050919050565b6008818154811061043357600080fd5b90600052602060002001600091509050805461044e90610caa565b80601f016020809104026020016040519081016040528092919081815260200182805461047a90610caa565b80156104c75780601f1061049c576101008083540402835291602001916104c7565b820191906000526020600020905b8154815290600101906020018083116104aa57829003601f168201915b505050505081565b6009816040516104df9190610d84565b908152602001604051809103902060009054906101000a900460ff161561053b576040517f08c379a000000000000000000000000000000000000000000000000000000000815260040161053290610de7565b60405180910390fd5b600881908060018154018082558091505060019003906000526020600020016000909190919091509080519060200190610576929190610849565b506000600160088054905061058b9190610e36565b905061059733826105d2565b60016009836040516105a99190610d84565b908152602001604051809103902060006101000a81548160ff0219169083151502179055505050565b6105dc82826105e9565b6105e5816107ab565b5050565b600073ffffffffffffffffffffffffffffffffffffffff168273ffffffffffffffffffffffffffffffffffffffff161415610659576040517f08c379a000000000000000000000000000000000000000000000000000000000815260040161065090610edc565b60405180910390fd5b610662816107d7565b156106a2576040517f08c379a000000000000000000000000000000000000000000000000000000000815260040161069990610f48565b60405180910390fd5b816002600083815260200190815260200160002060006101000a81548173ffffffffffffffffffffffffffffffffffffffff021916908373ffffffffffffffffffffffffffffffffffffffff1602179055506001600360008473ffffffffffffffffffffffffffffffffffffffff1673ffffffffffffffffffffffffffffffffffffffff16815260200190815260200160002060008282546107449190610f68565b92505081905550808273ffffffffffffffffffffffffffffffffffffffff16600073ffffffffffffffffffffffffffffffffffffffff167fddf252ad1be2c89b69c2b068fc378daa952ba7f163c4a11628f55a4df523b3ef60405160405180910390a45050565b600481908060018154018082558091505060019003906000526020600020016000909190919091505550565b6000806002600084815260200190815260200160002060009054906101000a900473ffffffffffffffffffffffffffffffffffffffff169050600073ffffffffffffffffffffffffffffffffffffffff168173ffffffffffffffffffffffffffffffffffffffff161415915050919050565b82805461085590610caa565b90600052602060002090601f01602090048101928261087757600085556108be565b82601f1061089057805160ff19168380011785556108be565b828001600101855582156108be579182015b828111156108bd5782518255916020019190600101906108a2565b5b5090506108cb91906108cf565b5090565b5b808211156108e85760008160009055506001016108d0565b5090565b600081519050919050565b600082825260208201905092915050565b60005b8381101561092657808201518184015260208101905061090b565b83811115610935576000848401525b50505050565b6000601f19601f8301169050919050565b6000610957826108ec565b61096181856108f7565b9350610971818560208601610908565b61097a8161093b565b840191505092915050565b6000602082019050818103600083015261099f818461094c565b905092915050565b6000819050919050565b6109ba816109a7565b82525050565b60006020820190506109d560008301846109b1565b92915050565b6000604051905090565b600080fd5b600080fd5b6109f8816109a7565b8114610a0357600080fd5b50565b600081359050610a15816109ef565b92915050565b600060208284031215610a3157610a306109e5565b5b6000610a3f84828501610a06565b91505092915050565b600073ffffffffffffffffffffffffffffffffffffffff82169050919050565b6000610a7382610a48565b9050919050565b610a8381610a68565b82525050565b6000602082019050610a9e6000830184610a7a565b92915050565b610aad81610a68565b8114610ab857600080fd5b50565b600081359050610aca81610aa4565b92915050565b600060208284031215610ae657610ae56109e5565b5b6000610af484828501610abb565b91505092915050565b600080fd5b600080fd5b7f4e487b7100000000000000000000000000000000000000000000000000000000600052604160045260246000fd5b610b3f8261093b565b810181811067ffffffffffffffff82111715610b5e57610b5d610b07565b5b80604052505050565b6000610b716109db565b9050610b7d8282610b36565b919050565b600067ffffffffffffffff821115610b9d57610b9c610b07565b5b610ba68261093b565b9050602081019050919050565b82818337600083830152505050565b6000610bd5610bd084610b82565b610b67565b905082815260208101848484011115610bf157610bf0610b02565b5b610bfc848285610bb3565b509392505050565b600082601f830112610c1957610c18610afd565b5b8135610c29848260208601610bc2565b91505092915050565b600060208284031215610c4857610c476109e5565b5b600082013567ffffffffffffffff811115610c6657610c656109ea565b5b610c7284828501610c04565b91505092915050565b7f4e487b7100000000000000000000000000000000000000000000000000000000600052602260045260246000fd5b60006002820490506001821680610cc257607f821691505b60208210811415610cd657610cd5610c7b565b5b50919050565b7f496e76616c6964206f776e657220616464726573730000000000000000000000600082015250565b6000610d126015836108f7565b9150610d1d82610cdc565b602082019050919050565b60006020820190508181036000830152610d4181610d05565b9050919050565b600081905092915050565b6000610d5e826108ec565b610d688185610d48565b9350610d78818560208601610908565b80840191505092915050565b6000610d908284610d53565b915081905092915050565b7f4b727970746f204269726420616c726561647920657869737473210000000000600082015250565b6000610dd1601b836108f7565b9150610ddc82610d9b565b602082019050919050565b60006020820190508181036000830152610e0081610dc4565b9050919050565b7f4e487b7100000000000000000000000000000000000000000000000000000000600052601160045260246000fd5b6000610e41826109a7565b9150610e4c836109a7565b925082821015610e5f57610e5e610e07565b5b828203905092915050565b7f4552433732313a206d696e74696e6720746f20746865207a65726f206164647260008201527f6573732e00000000000000000000000000000000000000000000000000000000602082015250565b6000610ec66024836108f7565b9150610ed182610e6a565b604082019050919050565b60006020820190508181036000830152610ef581610eb9565b9050919050565b7f4552433732313a20746f6b656e20616c7265616479206d696e74696e67000000600082015250565b6000610f32601d836108f7565b9150610f3d82610efc565b602082019050919050565b60006020820190508181036000830152610f6181610f25565b9050919050565b6000610f73826109a7565b9150610f7e836109a7565b9250827fffffffffffffffffffffffffffffffffffffffffffffffffffffffffffffffff03821115610fb357610fb2610e07565b5b82820190509291505056fea2646970667358221220a0c71711f6cf142984294ba5230c36f641daac945f246e0be321bdeb7dc1887b64736f6c634300080b0033",
  "immutableReferences": {},
  "source": "// SPDX-License-Identifier: MIT\npragma solidity ^0.8.0;\n\nimport \"./ERC721Connector.sol\";\n\ncontract KryptoBird is ERC721Connector {\n    string[] public kryptoBirdz;\n    mapping(string => bool) private _kryptoBirdExists;\n\n    constructor() ERC721Connector(\"KryptoBird\", \"KBIRDZ\") {}\n\n    function mint(string memory _kryptoBird) public {\n        require(!_kryptoBirdExists[_kryptoBird], \"Krypto Bird already exists!\");\n\n        kryptoBirdz.push(_kryptoBird);\n        uint256 _id = kryptoBirdz.length - 1;\n        _mint(msg.sender, _id);\n\n        _kryptoBirdExists[_kryptoBird] = true;\n    }\n}\n",
  "sourcePath": "/home/dashzou/Desktop/NFTS/frist_project/src/contracts/KryptoBirdz.sol",
  "compiler": {
    "name": "solc",
    "version": "0.8.11+commit.d7f03943.Emscripten.clang"
  },
  "schemaVersion": "3.4.4",
  "updatedAt": "2022-02-07T19:49:52.374Z",
  "networkType": "ethereum",
  "devdoc": {
    "kind": "dev",
    "methods": {},
    "version": 1
  },
  "userdoc": {
    "kind": "user",
    "methods": {},
    "version": 1
  }
}